:020000040800F2
:10000000C0470020FD040008F90400083D0B00086B
:10001000F9040008F9040008F904000800000000D1
:10002000000000000000000000000000312C00086B
:10003000F904000800000000912C0008D92C0008E9
:10004000F9040008F9040008F9040008F90400089C
:10005000F9040008F90400088D1F0008DD1F0008DE
:100060003120000885200008D9200008F904000884
:10007000F9040008F9040008F9040008F90400086C
:10008000F9040008F9040008CD220008F90400086A
:10009000F9040008F9040008F90400082D210008FB
:1000A000F9040008F9040008F9040008F90400083C
:1000B000F9040008F9040008F9040008F90400082C
:1000C000F9040008F9040008F9040008F90400081C
:1000D000F904000869300008CD300008F904000870
:1000E000E9210008F9040008F904000800000000F4
:1000F0000000000000000000000000000000000000
:1001000000000000000000005FF808F170B50A8DE3
:100110000446013212B21F2A82B00A8514DDD1E9E9
:10012000082042EAD072520043000A624B628E6994
:10013000002501F077FA2346024607213046009554
:1001400000F04CFF02B070BD4B6A5B00EEE700BFF1
:1001500070B50A8D0446013212B21F2A82B00A8598
:1001600016DDD1E9083043EAD07342005B000B6230
:1001700042F002024A628E69002501F053FA2346DA
:10018000024607213046009500F028FF02B070BDFE
:100190004A6A520042F00202ECE700BF0023034A21
:1001A0001946906E1A4602F00DB900BF2C000020CF
:1001B00008B5012300253B4C84F8323000234FF46E
:1001C0007A721946A06E02F043FB0128F6D1B4F909
:1001D0002830182B2CD01A2B47D0202B45D0222B7F
:1001E00007D0082B2ED0042B3FD0C4E90855258515
:1001F000E4E7D4E9082149085208C4E90821226A41
:1002000002F003022262226A92072262626A5208A4
:100210006262226A616A0A43C4E908552386258519
:10022000E262E369002BC9D0012100209847C5E7AD
:10023000626A52086262DAB21A2A2AD0222ADED010
:10024000626AE9E7626A23866FEA5213C2F34302E5
:1002500003F00F039A42C4E908552585AED10A2A56
:100260001DD00B2A08BF0D22DAE7626A042B4FEA81
:1002700052026262DFD102F00F020A2A0DD00B2A6D
:1002800008BF0D220423C4E90855E26225852386B0
:10029000C7E7626AC2F35702BEE71B22F2E71B22DE
:1002A000BEE700BF2C00002070B5032282B0002101
:1002B000012002F04DF8022400230646054D4FF4BC
:1002C0000072CDE9004304490448AE6600F0DAFF4D
:1002D00002B070BD2C000020E8330008B101000816
:1002E0002DE9F041012882B09DF8207048DC0546D8
:1002F0004FF0340C8E464FF00008164619460CFBA2
:1003000005FC224C5FFA8EF044F80C50A444099C82
:100310008CF80410CCF80C60CCF81C40CCE90888B0
:10032000CCF808E08CF80570ACF82880CCF82C806C
:10033000ACF830800122CDF800C0154B644601F0C6
:10034000CFFC0546394625610122124BF0B20094DC
:1003500001F0C6FC0646104D01221E2123466661AF
:100360000E48009500F0FEFD03462069A36101F0F0
:10037000D3FC606901F0D0FC204602B0BDE8F081FA
:100380000024204602B0BDE8F08100BF2C00002010
:100390000D010008510100089D010008F03300081C
:1003A00010B400204FF41F04394A3A4B116883B04F
:1003B00041F00101116051680B405360136823F054
:1003C000847323F480331360136823F48023136051
:1003D000536823F4FE035360946000900190136807
:1003E00043F48033136003E0009BB3F5A06F09D0A2
:1003F000136803F400330193009B01330093019BC6
:10040000002BF1D0224B1B6813F4003318BF0123DB
:100410000193019B012B06D04FF000621E4B9A60A6
:1004200003B010BC70471D4A194B116841F0100110
:100430001160116821F003011160116841F002019F
:1004400011605A685A605A685A605A6842F4806269
:100450005A605A6822F47C125A605A6842F4E812D0
:100460005A601A6842F080721A601A689201FCD5CC
:100470005968074A21F003015960596841F00201A7
:100480005960536803F00C03082BFAD1C4E700BF8E
:10049000001002400000FFF800ED00E000200240E4
:1004A000114A536803F00C03082B09D00F4B0E4A76
:1004B0000F495268C2F303128A5CD3400B61704744
:1004C00053685168C3F38343C90303F1020306D59C
:1004D0005268920303D4054A02FB03F3E7E7054A97
:1004E00002FB03F3E3E700BF0010024000127A00B2
:1004F0000000002000093D00FEE700BF0D480E4A45
:1005000008B5904207D2013A121A22F003020B49B1
:10051000043202F025FE0A480A494FF000028842E0
:10052000B8BF40F8042BFADBFFF73AFFBDE80840FC
:1005300000F060BB000000202C00002011350008F6
:100540002C000020C043002000B591F803C01CF02F
:10055000100F18BF8B780CF00F0E18BF4EEA030E69
:100560000B88DAB2002A36D0BCF1480F026800F0DE
:10057000B380BCF1280F00F03A81D90744BF22F0C4
:100580000F024EEA0202990744BF22F0F00242EA4B
:100590000E12590744BF22F4706242EA0E22190774
:1005A00044BF22F4704242EA0E32D90644BF22F41C
:1005B000702242EA0E42990644BF22F4700242EAD7
:1005C0000E52590644BF22F0706242EA0E621906CA
:1005D00000F10A810260FF2B4AD9BCF1480F426842
:1005E00048D1D90506D54FF4807122F00F024EEAAA
:1005F00002020161990506D54FF4007122F0F00264
:1006000042EA0E120161590506D54FF4806122F4C9
:10061000706242EA0E220161190506D54FF40061AD
:1006200022F4704242EA0E320161D90406D54FF439
:10063000805122F4702242EA0E420161990406D5EB
:100640004FF4005122F4700242EA0E520161590443
:1006500006D54FF4804122F0706242EA0E620161D9
:100660001B0404D54FF400436EF31F720361426014
:100670005DF804FBBCF1280F6ED0D90544BF22F011
:100680000F024EEA0202990544BF22F0F00242EA4C
:100690000E12590544BF22F4706242EA0E22190577
:1006A00044BF22F4704242EA0E32D90444BF22F41D
:1006B000702242EA0E42990444BF22F4700242EAD8
:1006C0000E52590444BF22F0706242EA0E621B04CB
:1006D000CDD56EF31F72CAE7D90705D5012122F0E7
:1006E0000F024EEA02020161990705D5022122F0AC
:1006F000F00242EA0E120161590705D5042122F4E5
:10070000706242EA0E220161190705D5082122F420
:10071000704242EA0E320161D90605D5102122F459
:10072000702242EA0E420161990605D5202122F489
:10073000700242EA0E520161590605D5402122F0AD
:10074000706242EA0E62016119067FF543AF8021B3
:100750006EF31F7201613DE7D90506D54FF4807134
:1007600022F00F024EEA02024161990506D54FF4CC
:10077000007122F0F00242EA0E124161590506D5DD
:100780004FF4806122F4706242EA0E224161190541
:1007900006D54FF4006122F4704242EA0E32416104
:1007A000D90406D54FF4805122F4702242EA0E4259
:1007B0004161990406D54FF4005122F4700242EAD7
:1007C0000E524161590406D54FF4804122F0706207
:1007D00042EA0E6241611B047FF549AF4FF40043CA
:1007E0006EF31F72436142E76EF31F72F2E6D907A0
:1007F00005D5012122F00F024EEA0202416199075C
:1008000005D5022122F0F00242EA0E124161590799
:1008100005D5042122F4706242EA0E2241611907D3
:1008200005D5082122F4704242EA0E324161D90610
:1008300005D5102122F4702242EA0E424161990648
:1008400005D5202122F4700242EA0E524161590678
:1008500005D5402122F0706242EA0E62416119061C
:100860007FF5B8AE80216EF31F724161B2E600BF22
:10087000C368194214BF0120002070470AB101610A
:1008800070474161704700BF00281A4B00F44012C6
:10089000B4BFDB695B68B2F5401F10B41FFA80FC7F
:1008A0001FD0C20214D50322C0F30344A24023EA9E
:1008B000020343F0706321B1420D12010CFA02F2FF
:1008C00013430C4A002810BCB4BFD3615360704777
:1008D000420D12010CFA02F223EA020343F07063A4
:1008E000E9E7044C23F07063626822F07062626092
:1008F000E1E700BF000001404FF00F0C01F0FC03E6
:1009000003F1804303F5803301F003019A68890005
:100910000CFA01FC22EA0C029A609A6888401043A3
:1009200098607047F0B5294C1622294920688BB091
:1009300002F062FB0025274E274F052000F06AFFDA
:1009400020680DF1070102F083FB0128F5D19DF825
:1009500007303C2B2AD0002DEFD021794A1CD2B28F
:10096000283169441D2A01F8203C227101D83E2B10
:100970002AD1052000F04EFF029A636AB2420CD0E1
:100980000221227902A898471E22002102A802F023
:100990005DFC00231D462371D2E7039ABA42EFD1D2
:1009A0009DF81020002AEBD10121EAE715B9257145
:1009B0000546C2E721794A1CD2B2283169441D2A72
:1009C00001F8203C2271D4D80125B6E79800002018
:1009D000FC330008537563636573733E002310B5E1
:1009E0000E4C84B001A90A22CDE90133ADF80C30D8
:1009F00002F09EFB01220A49206802F0FDFA01A8DC
:100A000002F076FC01A90246206802F0F5FA022203
:100A10000449206802F0F0FA04B010BD98000020EC
:100A200020340008243400080022F0B5302383B0BD
:100A300006464FF4165101201546032702F00CFA22
:100A40000A4C2B4620604FF40072CDE9007508492E
:100A500008482571666200F015FC3A4629460120D7
:100A600001F076FCA06203B0F0BD00BF980000204A
:100A70001C340008250900088C4610B5964604462B
:100A8000094A88B04FEACC0C0023106801A94FF442
:100A90007A728DF805408DF804C0CDF806E001F0BB
:100AA00091FC08B010BD00BFC4000020F8B5074697
:100AB00015460E460C4C1146A06802F063FA2A4611
:100AC0003946A06802F098FA0122A068074902F0AE
:100AD00093FA3146A06802F055FAA0680122BDE8F9
:100AE000F840034902F088BAC40000202834000806
:100AF0002C340008BFF34F8F0449054BCA6802F439
:100B0000E0621343CB60BFF34F8FFEE700ED00E0E0
:100B10000400FA05084B8168D0E90042DC601A61E4
:100B20005961D0E903259A61C269DD61D0E90541C7
:100B30001C6259629A62FEE7C40000201EF0040F96
:100B40000CBFEFF30880EFF309808169004A10477A
:100B5000150B0008704700BF30B50025114C85B05B
:100B600001A90A226068CDE90155ADF80C5002F0E8
:100B7000DFFA0E220C49A06802F03EFA01A802F04A
:100B8000B7FB01A90246A06802F036FA0122074924
:100B9000A06802F031FA6068FFF720FF656005B0D9
:100BA00030BD00BFC4000020303400082C340008E1
:100BB00010B50E4C1A220E49A06888B002F01CFA3B
:100BC000E06A00F0DDFA00234FF47A72206801A990
:100BD00001F03EFE0128F3D19DF804305B07EFD110
:100BE000DDF806306360FFF7B7FFE9E7C4000020D7
:100BF0004034000800B583B0FFF752FC01211D20EE
:100C000000F060FA01211E48FFF73EFE00224FF47B
:100C100000734FF4E131104602F01EF90022194C26
:100C20000821A060104600F065FAE062FFF73CFB87
:100C300002220E2114480D2301900091002011463C
:100C4000FFF74EFB1148FFF7EFFE00221B210520A6
:100C500001F07EFB0225002306464FF48062CDE9B9
:100C600000530B490B48266000F00CFB00F012FC0F
:100C70001A220949A06802F0BFF9FFF73BFF00BF45
:100C800000043000C4000020790A0008AD0A000802
:100C90001C340008B10B00085C3400082DE9F04159
:100CA0004FF00008194E84B00CE0DB68DC681F6868
:100CB000251D284601F002F8636A20469847E3693B
:100CC000012B09D033681A68002AEED1B268B360EC
:100CD000326004B0BDE8F081A3693B449F420ED36B
:100CE0007368002BEED0CDE90187039400F0BCFEC1
:100CF000002370681A4601A901F064FBE2E7294667
:100D000030686360246100F0C1FFDBE7F40000207D
:100D10002DE9F04F4FF0E0274FF080594FF00008D9
:100D2000754C87B023681E68002E00F08980DB6850
:100D30001E6800F067FC00F06FFCE368054698420F
:100D4000C0F08D808642E06040F29C8000226068A6
:100D5000711B01F0DBFE00F0E7FC28B9C7F8049D29
:100D6000BFF34F8FBFF36F8F6068002369461A4649
:100D700001F06EFD0028D5D0009B002BF4DB029D16
:100D80006B6913B1281D00F099FF00F045FCE36882
:100D90000646984269D3009BE660092BE4D801A27D
:100DA00052F823F0CD0D0008CD0D0008CD0D000840
:100DB000690D00081B0E0008390E0008CD0D000853
:100DC000CD0D0008690D00081B0E0008019BAA69E3
:100DD0002D6199182CBF01200020B142696047D8CD
:100DE000F31A9A4222D828466B6A9847EB696068E2
:100DF000012BBAD10028B8D0AA69019BCDF80C808C
:100E00001344CDE9043500F02FFE002360681A4634
:100E100003A901F0D7FA6068A7E7019B2D619A1931
:100E2000B242AB616A6027D8002B9DD0A068291D13
:100E300000F02CFF606898E7284601F0AFFF93E7C9
:100E400000F0E0FB00F0E8FBE3680546834206D8CB
:100E5000A368E5601A68B2FA82F2520977E7FFF7F1
:100E60001DFFE56000F060FC7EE7FFF717FF92E7EB
:100E7000B34201D90028B6D02068291D00F006FF32
:100E8000606872E700F050FC2368DB68D3F80CA0C0
:100E90000AF1040B584600F011FFDAF81C30012B60
:100EA00004D05046DAF8243098475DE7DAF8183075
:100EB000CAF810A0F218AA42CAF8042004D9594668
:100EC000206800F0E3FEECE7AD1BAB420FD863688F
:100ED000002BE6D0CDE90386CDF814A000F0C4FDC8
:100EE000002360681A4603A901F06CFAD9E7594655
:100EF000A06800F0CBFED4E7F4000020F0B5154C5C
:100F000083B001F0A9FE656885B101F0B5FE6068A7
:100F100050B105241048002301904FF480620F491E
:100F20000F48009400F0AEF903B0F0BD04F11007D3
:100F3000384604F1240600F08BFE304600F088FEAF
:100F40002A460C210F202760A66001F001FA60609C
:100F5000DBE700BFF40000202C01002078340008FB
:100F6000110D00082DE9F04F074683B02820884670
:100F700016461D4601F0EAFE044688B1DFF8589097
:100F800001F06AFED9F8042072B101F075FE0C9BE5
:100F9000C4E90686276025626362201D00F064FEB6
:100FA000204603B0BDE8F08F09F1100B584609F157
:100FB000240A019200F04CFE504600F049FE0C213C
:100FC0000F20019AC9F800B0C9F808A001F0C0F9D3
:100FD000C9F80400D9E700BFF400002030B5144D73
:100FE00085B06C68D4B10529CDE9011203900CDC01
:100FF00000F03AFD02284FF0000312D01A4668684C
:1010000001A901F0DFF905B030BD9C462046002360
:10101000624601A901F062FB05B030BD204605B073
:1010200030BD089A686801A901F0CCF905B030BD5F
:10103000F40000201F4A10B4536803F00C03082B7F
:1010400022D01D4A134602601A491C4A4C68C4F358
:101050000314145DE34043604C68C4F30224145D40
:1010600023FA04F484604C68C4F3C22C12F80C40D8
:10107000E340C360496810BCC1F381310A44127C6B
:10108000B3FBF2F30361704753685168C3F38343C2
:10109000C90303F1020307D55268920304D4064A38
:1010A00002FB03F30360CFE7054A02FB03F303608F
:1010B000CAE700BF0010024000127A0014000020AE
:1010C00000093D00044A936911B1184390617047CB
:1010D00023EA00009061704700100240044AD3697F
:1010E00011B11843D061704723EA0000D061704706
:1010F00000100240204B30B51D68062805EB450462
:1011000005F1010503EB040C43F8045B9BBF85026A
:1011100005F18045002505F58435012A1C4414BFDE
:101120001023042383B00F298DF8073098BF134B89
:101130008CF8062098BF33F811204FF0030388BFC6
:10114000102206288DF8063098BF0C4B8CF805004D
:1011500096BF03EB80000020006A8CF80410012188
:10116000ADF80420FFF7AEFF284601A9FFF7ECF920
:10117000204603B030BD00BF30010020803400089D
:1011800038B58378012B24D044780378062C9BBF94
:10119000A40204F18044002404F584340F2B8CBF96
:1011A00010250C4A204698BF32F813502946FFF705
:1011B0005FFB012806D029462046BDE838400122C1
:1011C000FFF75CBB29462046BDE838400022FFF708
:1011D00055BB38BD8034000883793BB31D4B016893
:1011E0001A6810B422EA01021A605A6822EA01025F
:1011F0005A60027902F1804202F58232146821437A
:1012000011609968026821EA02019960D96821EAAF
:101210000201D9604179102913D001F1804303F50F
:101220008233196810BC0A431A6070470379016859
:1012300003F1804303F582331A6822EA01021A603F
:101240007047996810BC11439960D9680A43DA6005
:10125000704700BF00040140054B024619685B69F6
:10126000184003D0114214BF01200020704700BF76
:1012700000040140014B5861704700BF0004014069
:10128000FEE700BF2DE9F84F4FEA820A06465046B6
:101290000C461F4601F05AFD002800F0C08083462E
:1012A0004C2001F053FD0546002800F0C580C0F831
:1012B00030B0237880F834302378002B4DD0637819
:1012C00080F835306378002B47D0A37880F836302B
:1012D000A378002B41D0E37880F83730E378002BF7
:1012E0003BD0237980F838302379002B35D06379CF
:1012F00080F839306379002B2FD0A37980F83A3009
:10130000A37953B3E37980F83B30E3792BB3237AA5
:1013100080F83C30237A03B3637A80F83D30637AF7
:10132000DBB1A37A80F83E30A37AB3B1E37A80F8D8
:101330003F30E37A8BB1237B80F84030237B63B16D
:10134000637B80F84130637B3BB1A37B80F8423004
:10135000A37B13B1E37B80F84330DDF828800024C1
:10136000B8F1040F28BF4FF0040805F104094846FE
:1013700085F84340C5F82C8000F076FC05F1180094
:1013800000F072FCAAF1040CC8F105030BEB0C0091
:10139000AB616C643A46314685F848402D616D6218
:1013A00020F0070001F030FC0B9B286003B11D60AA
:1013B000364E01F051FCB3690133B3617368002B01
:1013C00043D0D6F8BC3073B3EB6A06F11C07012496
:1013D000D6F8C02003EB83002244C6F8C020B268D0
:1013E00004FA03F31343494607EB8000B36000F0AF
:1013F0003FFC01F041FCD6F8BC301BB37268EB6ACD
:10140000D26A9A421ED24FF0E0234FF08052C3F8C6
:10141000042DBFF34F8FBFF36F8F204601E04FF0D5
:10142000FF30BDE8F88F7268EB6AD26A06F11C07DC
:101430009A4298BF7560CAE7584601F0AFFC4FF07A
:10144000FF30EEE72046BDE8F88F7560B369012BE9
:10145000BAD106F11C073C4606F180082046143438
:1014600000F0F6FB4445F9D1DFF82480A8F1140020
:1014700000F0EEFB404600F0EBFB08F1140000F03A
:10148000E7FB3461EB6AC6F80C80A0E7900100200E
:10149000240200202DE9F8434FF4487001F056FC77
:1014A000002876D005464C2001F050FC0446002868
:1014B00071D000274F4B00F10408C0E90C5340469F
:1014C00084F8387084F84370E76200F0CDFB04F1D3
:1014D000180000F0C9FB052305F54770A3613A46E3
:1014E000454967642461646284F8487020F007000D
:1014F00001F08AFB414E2060C6F8C44001F0ACFB0D
:10150000B3690133B3617368002B52D0D6F8BC3095
:10151000002B45D0E26A06F11C050123D6F8C00075
:10152000B7681844C6F8C000934002EB82003B4302
:10153000414605EB8000B36000F09AFB01F09CFB94
:10154000D6F8BC3073B17268E36AD26A9A4209D2A3
:101550004FF0E0234FF08052C3F8042DBFF34F8FBC
:10156000BFF36F8FFFF7CAFC012812D14FF0BF0302
:1015700083F31188BFF36F8FBFF34F8F00234FF0BA
:10158000FF327261C6F8BC003360BDE8F84301F079
:10159000C3BBBDE8F8832846BDE8F84301F0FEBBB5
:1015A0007368E26ADB6A06F11C05934298BF7460B7
:1015B000B3E77460B369012BACD106F11C052F466B
:1015C00006F180093846143700F042FBB945F9D1DD
:1015D0000B4FA7F1140000F03BFB384600F038FB3E
:1015E00007F1140000F034FBC6F81090E26AF760CF
:1015F00093E700BF49444C45811200089001002048
:1016000024020020034AD2F8C8300133C2F8C8309F
:10161000704700BF90010020014B1868704700BF61
:1016200090010020014B1868704700BF9001002016
:101630002DE9F0473A4CD4F8C830002B49D127683F
:10164000013727607FB92369E2682261E360D4F83B
:10165000CC300133C4F8CC3023691B68002B52D145
:101660004FF0FF3363616369BB4240D823691E6852
:10167000002E51D000264FF00109DFF8A8801EE0AF
:10168000504600F01BFBAB6A05F118000BB100F0EF
:1016900015FBE86AA26809FA00F300EB8000134327
:1016A000514608EB8000A36000F0E2FA626823690B
:1016B000E96AD26A1B68914228BF012663B3236995
:1016C000DB68DD686B6805F1040A9F42D8D263616C
:1016D0000EE00026D4F8D0300133C4F8D030D4F86E
:1016E000D430002B0CBF30460120BDE8F087002627
:1016F0006368DB6A03EB830304EB8303DB69022B80
:1017000028BF0126EBE72369DB68DB685B68636160
:101710006369BB42EBD8A9E74FF0FF336361E7E7AA
:1017200090010020AC0100202DE9F041384C01F07F
:1017300093FAD4F8C830013BC4F8C830D4F8C830A4
:10174000002B42D1A369002B3FD0D4F8A83063B35B
:10175000012604F11C07D4F8B430DD6805F1040853
:1017600005F1180000F0AAFA404600F0A7FAE86A6E
:10177000A26806FA00F300EB80001343414607EB32
:101780008000A36000F074FA6368EA6ADB6A9A4238
:10179000D4F8A8301FD3C4F8D460002BDBD1236960
:1017A0001B6873BB4FF0FF336361D4F8D0504DB169
:1017B0000126FFF73DFF08B1C4F8D460013DF8D120
:1017C000C4F8D050D4F8D4305BB9002401F054FAF6
:1017D0002046BDE8F081002BBDD123691B6883B989
:1017E000E0E74FF0E0234FF08052C3F8042DBFF341
:1017F0004F8FBFF36F8F012401F03EFA2046BDE802
:10180000F0812369DB68DB685B686361CDE700BF5B
:101810009001002070B550B94FF0E0234FF0805296
:10182000C3F8042DBFF34F8FBFF36F8F70BD164DFC
:101830000446D5F8C8300133C5F8C8302E6868684A
:10184000043000F03BFA38B96A68AB68D16A01220B
:101850008A4023EA0203AB606B68A4195C600DD276
:1018600028696968043100F011FA6B699C4238BF3D
:101870006C61FFF759FF0028CED070BDE868696839
:10188000043100F003FAF4E790010020104AD2F886
:10189000C8301BB10123C2F8D4307047C2F8D4302D
:1018A0009368B3FA83F3DBB2C3F11F0303EB830343
:1018B00002EB83000346016A2433496899420162BE
:1018C00008BF4968CB6808BF01625360704700BF1A
:1018D0009001002070B5144C0D466168183100F07D
:1018E000D5F926686068043000F0E8F938B9626814
:1018F000A368D16A01228A4023EA0203A3606368D5
:10190000AD195D6006D3E0686168BDE870400431E0
:1019100000F0BCB920696168043100F0B7F963696F
:101920009D4238BF656170BD90010020F8B5164634
:10193000164D0C466968183100F09AF92F686868EE
:10194000002E00F1040018BF4FF0FF3400F0B6F98C
:1019500038B96A68AB68D16A01228A4023EA020377
:10196000AB606B68E4195C6006D3E8686968BDE841
:10197000F840043100F08AB928696968043100F040
:1019800085F96B699C4238BF6C61F8BD90010020FD
:10199000F8B5C368164CDD6805F11806304600F04E
:1019A0008DF9D4F8C830EBB92E1D304600F086F919
:1019B0000123EA6AA768314604F11C0002EB8206A3
:1019C00093403B4300EB8600A36000F051F963684D
:1019D000EA6ADB6A9A4289BF012300201846C4F8EC
:1019E000D430F8BD314604F1A80000F041F9EEE72B
:1019F00090010020034BD3F8CC201B68C0E90023E2
:101A0000704700BF9001002038B504460D4601F034
:101A100023F9104B21681868D3F8CC2091426168F3
:101A200006D0814204D8012501F026F9284638BDA8
:101A30002A68A0EB010C9445F5D2121A0A442A60D8
:101A40000025D3F8CC101B68C4E9001301F014F989
:101A5000284638BD900100200122024BC3F8D42053
:101A6000704700BF90010020064BD3F8BC2032B174
:101A7000D3F8C830002B0CBF022000207047012093
:101A8000704700BF90010020836819B143F0010343
:101A90008360704723F0010383607047836819B146
:101AA00043F4A0038360704723F4A003836070476E
:101AB000C06C80B2704700BF4368006810EA112014
:101AC00004D0C9B2194214BF01200020704700BFE2
:101AD0006FEA11210160704730B504460D46238A34
:101AE000CA889BB223F4405313438A892382A38973
:101AF000898823F4B05323F00C031B041B0C0B4305
:101B0000298987B00B43698901A80B439BB2A38144
:101B1000A38A9BB223F440731343A382FFF78AFA8C
:101B2000DDE90332184919488C4208BF1346A289DF
:101B300003EB830312F4004F2A6803EB830314BF03
:101B400052009200B3FBF2F36425A0FB0321490984
:101B500005FB11330A01A18909040AD41B013233A0
:101B6000A0FB0313C3F3431313439BB2238107B0BA
:101B700030BDDB003233A0FB0313C3F34213134326
:101B80009BB2238107B030BD003801401F85EB5167
:101B9000838921B19BB243F400538381704723F4BE
:101BA00000531B041B0C8381704700BF012301F00D
:101BB0001F0CC1F34211012903FA0CF30DD00229C5
:101BC0000CBF103014301AB1026813430360704721
:101BD000026822EA0303036070470C30F3E700BF9A
:101BE000C1F30801818070478088C0F30800704706
:101BF0000388194214BF0120002070470123C1F35C
:101C0000421201F01F0C012A03FA0CF313D0022A2E
:101C10000CBF028A828A92B21340028892B243B108
:101C20000123090A03FA01F10A4214BF18460020F1
:101C3000704718467047828992B21340EDE700BFA3
:101C40000123090A8B40DB439BB20380704700BF2E
:101C50004FF0FF31002200F10803C0E90131C0E973
:101C600003330260704700BF00230361704700BF69
:101C7000D0E9002310B49C6801328C609C684B60F2
:101C80006160996010BC08610260704730B40D68F3
:101C90006B1C10D000F108031C465B681A68AA424E
:101CA000FAD902684B60013299608C60616008610A
:101CB00030BC0260704704696368F2E7034602695A
:101CC00010B45468406899689C428160486008BFBD
:101CD00051600021106810BC013819611060704714
:101CE0002DE9F041DFF82C80074658F8210008B1B3
:101CF000BDE8F0810C200C461D46164601F026F882
:101D0000069B077044708670C0E9015348F82400B0
:101D1000BDE8F08168020020E0B10121F0B5044681
:101D200085B00846FFF7CEF940F203432678ADF8B8
:101D30000630062E0CD8DFE806F02E343A40464C2A
:101D40000E0050214FF40002884B83F817131A60DD
:101D500005B0F0BD70474FF480700121FFF7B2F974
:101D600083486778132F00F2FF80DFE817F0EE005A
:101D7000EA00E600E200DE00DA00D600D200CD0084
:101D8000C800C300BE00B900B400AF00A300380013
:101D9000F800F500F20004200121FFF793F97548DF
:101DA000DFE708200121FFF78DF97348D9E71020FC
:101DB0000121FFF787F97148D3E720200121FFF7C0
:101DC00081F96F48CDE740200121FFF77BF96D488D
:101DD000C7E780200121FFF775F96B48C1E74FF491
:101DE000803501210022A37802958DF80E108DF820
:101DF0000C20002B00F0B6808B420CBF0C2310236C
:101E000002A88DF80D30FFF7E7F963780F2B9FD804
:101E100001A252F823F000BFA71E0008991E000877
:101E2000891E0008791E0008691E0008431D00086D
:101E3000431D0008431D0008431D0008431D000802
:101E4000591E0008591E0008591E0008591E000896
:101E5000591E0008591E000850214FF48072434B50
:101E600083F828135A6073E750214FF480623F4B88
:101E700083F80A131A606BE750214FF400723B4B52
:101E800083F809131A6063E750214FF48072374BCF
:101E900083F808131A605BE750218022334B83F8E4
:101EA00007131A6054E750214022304B83F8061381
:101EB0001A604DE74FF40045ADF8045001A9FEF754
:101EC00043FB39463046FEF717FD8AE74FF480455D
:101ED000ADF80450F2E74FF40055ADF80450EDE7CB
:101EE0004FF48055ADF80450E8E74FF40065ADF8C5
:101EF0000450E3E74FF48065ADF80450DEE74FF49B
:101F00000075ADF80450D9E74FF48075ADF8045072
:101F1000D4E78025ADF80450D0E74025ADF8045053
:101F2000CCE72025ADF80450C8E71025ADF80450E3
:101F3000C4E70825ADF80450C0E70425ADF8045007
:101F4000BCE70225ADF80450B8E70125ADF8045010
:101F5000B4E74FF4002544E74FF4802541E74FF400
:101F600000353EE708234BE700253AE700E100E0B3
:101F70000020014000080140000C01400010014019
:101F80000014014000180140001C0140002300B56E
:101F9000012083B00193FFF75FF9012802D003B05D
:101FA0005DF804FBFFF766F90B4B1B6823B15A6819
:101FB00012B1996801A89047019B002BEFD04FF018
:101FC000E0234FF08052C3F8042DBFF34F8FBFF3CF
:101FD0006F8F03B05DF804FB68020020002300B59A
:101FE000022083B00193FFF737F9012802D003B034
:101FF0005DF804FB0220FFF73DF90C4B5B6823B151
:102000005A6812B1996801A89047019B002BEED045
:102010004FF0E0234FF08052C3F8042DBFF34F8FF1
:10202000BFF36F8F03B05DF804FB00BF68020020B0
:10203000002300B5042083B00193FFF70DF90128B8
:1020400002D003B05DF804FB0420FFF713F90C4B3A
:102050009B6823B15A6812B1996801A89047019B07
:10206000002BEED04FF0E0234FF08052C3F8042D48
:10207000BFF34F8FBFF36F8F03B05DF804FB00BF5A
:1020800068020020002300B5082083B00193FFF709
:10209000E3F8012802D003B05DF804FB0820FFF745
:1020A000E9F80C4BDB6823B15A6812B1996801A8B2
:1020B0009047019B002BEED04FF0E0234FF0805271
:1020C000C3F8042DBFF34F8FBFF36F8F03B05DF8DC
:1020D00004FB00BF68020020002300B5102083B07D
:1020E0000193FFF7B9F8012802D003B05DF804FBB3
:1020F0001020FFF7BFF80C4B1B6923B15A6812B1CF
:10210000996801A89047019B002BEED04FF0E02387
:102110004FF08052C3F8042DBFF34F8FBFF36F8F82
:1021200003B05DF804FB00BF68020020002300B587
:10213000202083B00193FFF78FF8012838D040208A
:10214000FFF78AF801282BD08020FFF785F80128B7
:102150003FD04FF48070FFF77FF8012830D04FF464
:102160000070FFF779F8012817D14FF40070FFF7DE
:1021700081F81C4B5B6A23B15A6812B1996801A8B7
:102180009047019B4BB14FF0E0234FF08052C3F8D2
:10219000042DBFF34F8FBFF36F8F03B05DF804FBC7
:1021A0004020FFF767F80F4B9B69002BE4D1E8E76D
:1021B0002020FFF75FF80B4B5B69002BDCD1E0E7D9
:1021C0004FF48070FFF756F8064B1B6A002BD3D1F3
:1021D000D7E78020FFF74EF8024BDB69002BCBD10D
:1021E000CFE700BF68020020002300B54FF4004095
:1021F00083B00193FFF730F8012841D04FF48040BD
:10220000FFF72AF8012832D04FF40050FFF724F8E6
:10221000012847D04FF48050FFF71EF8012838D02E
:102220004FF40060FFF718F8012844D04FF48060A5
:10223000FFF712F8012817D14FF48060FFF71AF862
:10224000214B9B6A23B15A6812B1996801A8904743
:10225000019B4BB14FF0E0234FF08052C3F8042DA7
:10226000BFF34F8FBFF36F8F03B05DF804FB4FF4E4
:102270008040FEF7FFFF144B9B6B002BE3D1E7E799
:102280004FF40040FEF7F6FF0F4BDB6B002BDAD16B
:10229000DEE74FF48050FEF7EDFF0B4B1B6B002B7E
:1022A000D1D1D5E74FF40050FEF7E4FF064B5B6B4E
:1022B000002BC8D1CCE74FF40060FEF7DBFF024BE8
:1022C000DB6A002BBFD1C3E76802002010B54FF4D2
:1022D000087182B01C48FFF7EFFB68B9019B4BB156
:1022E0004FF0E0234FF08052C3F8042DBFF34F8F1F
:1022F000BFF36F8F02B010BD4FF408711248FFF7A3
:10230000E7FB1148FFF7D4FB104B1C68002CE5D00D
:10231000B3F88E104A1C92B203EB41013F2AC881E8
:10232000A3F88E200AD9227801A998681A7300F0C0
:1023300053FA00210448FFF7A7FBCFE70121024829
:10234000FFF7ACFBCAE700BF00240140B802002041
:1023500070B506460D4651B100FB01F0483000F063
:10236000F5FC044658B300F14803036005E048203B
:1023700000F0ECFC044610B32460C4E90F65FF25AF
:10238000002600F069FC216CE36B226801FB03F37B
:10239000591AA26013440A446360E260A66304F120
:1023A000100084F8445084F84550FFF751FC04F1C4
:1023B0002400FFF74DFC00F05FFC204670BD0024B8
:1023C000204670BD2DE9F043044685B01F460192BA
:1023D000884600F1240600F03FFCA26BE36B4FF04F
:1023E00000099A4279D3022F00F0E180019D002D6F
:1023F00000F0F680B9F1000F00F0D58000F03CFC51
:10240000FFF700F900F028FC94F84430FF2B04BFDC
:10241000002384F8443094F84530FF2B04BF002398
:1024200084F8453000F028FC02A801A9FFF7ECFA77
:10243000002840F0DB8000F00FFCA26BE36B9A42B7
:102440005CD000F019FC00F007FC94F8452055B270
:10245000002D04DC11E06A1ED3B255B26BB1636A81
:102460005BB13046FFF794FA0028F4D0FFF7F4FA96
:102470006A1ED3B255B2002BF1D1FF2384F8453048
:1024800000F0FAFB00F0E8FB94F8442055B2002D70
:1024900014DD04F1100903E06A1ED3B255B26BB12A
:1024A00023695BB14846FFF773FA0028F4D0FFF7C1
:1024B000D3FA6A1ED3B255B2002BF1D1FF2384F8B0
:1024C000443000F0D9FBFFF72FF900F0C5FBA26BF9
:1024D000E36B4FF001099A4285D2226CA56B002A6A
:1024E00040F0CC800135636AA563002B40F0D780B3
:1024F00000F0C2FB012005B0BDE8F08304F1100933
:1025000000F0BAFB48460199FFF7E4F900F0A4FB9C
:1025100094F845305DB2002D04DC11E06B1EDAB298
:102520005DB26AB1636A5BB13046FFF731FA0028E9
:10253000F4D0FFF791FA6B1EDAB25DB2002AF1D146
:10254000FF2384F8453000F097FB00F085FB94F8FA
:1025500044305DB2002D04DC11E06B1EDAB25DB2D6
:102560006AB123695BB14846FFF712FA0028F4D03C
:10257000FFF772FA6B1EDAB25DB2002AF1D1FF23C7
:1025800084F8443000F078FBFFF7CEF800289CD1A7
:102590004FF0E0234FF08052C3F8042DBFF34F8F6C
:1025A000BFF36F8F91E702A8FFF724FA26E7226CAA
:1025B000A56B002A96D04146E06800F0D1FD226C60
:1025C000E36851429B1A2268E360934204D2636835
:1025D0000B44E360022F85D1012D38BF012582E72E
:1025E00000F04AFB284605B0BDE8F08300F034FB5C
:1025F00094F845305DB2002D14DD04F1240603E0AB
:102600006B1EDAB25DB26AB1636A5BB13046FFF746
:10261000BFF90028F4D0FFF71FFA6B1EDAB25DB2E3
:10262000002AF1D1FF2384F8453000F025FB00F0AB
:1026300013FB94F844305DB2002D14DD04F1100654
:1026400003E06B1EDAB25DB26AB123695BB130465A
:10265000FFF79EF90028F4D0FFF7FEF96B1EDAB2FF
:102660005DB2002AF1D1FF2384F8443000F004FB6E
:10267000FFF75AF8002005B0BDE8F083414607BBDC
:10268000A06800F06DFDA368216C62680B44934262
:10269000A360FFF427AF23680135A36023E704F1AB
:1026A0002400FFF775F900283FF422AF4FF0E02334
:1026B0004FF08052C3F8042DBFF34F8FBFF36F8FDD
:1026C00016E7E06800F04CFD226CE36851429B1A6B
:1026D0002268E3609342BFF47DAF78E72DE9F843C9
:1026E000044690469946EFF311874FF0BF0282F3FC
:1026F0001188BFF36F8FBFF34F8F856BC06B85421F
:102700002BD3022B04D0002087F31188BDE8F88377
:1027100094F84550226CA66B6DB28AB1E06800F067
:102720001FFD226CE1682068891A8142E160C2F1D4
:10273000000240D261680A44E260B9F1020F3AD067
:1027400001366B1CA66321D0012005446DB284F8CC
:10275000455087F31188BDE8F88394F84550226C02
:10276000A66B6DB2002AEBD04BBBA06800F0F8FC62
:10277000A368226C013613446268A360934228BFA9
:102780002368A66328BFA3606B1CDDD1636A23B9ED
:10279000012087F31188BDE8F88304F12400FFF7D6
:1027A000F7F80028F4D0B8F1000FF1D00123184653
:1027B000C8F80030A8E7012E38BF0126C1E7E0685D
:1027C00000F0CEFC226CE1682068891A8142E16049
:1027D000C2F10002B1D2ADE710B5034682B0EFF30B
:1027E00011844FF0BF0282F31188BFF36F8FBFF3E4
:1027F0004F8F826BC06B90420FD993F84500013226
:10280000FF289A6342B20DD0013252B2012083F800
:10281000452084F3118802B010BD002084F3118894
:1028200002B010BD5A6A22B9012084F3118802B0A7
:1028300010BD03F124000191FFF7AAF80028F3D09E
:1028400001990029F0D0012318460B60E6E700BF8C
:102850002DE9F047044684B088461F46019200F0F7
:10286000FBF9A56B002D40F01B81019B002B00F0B4
:10287000CC8002A8FFF7BEF8A94604F1240600F0B8
:10288000FBF9FEF7BFFE00F0E7F994F84430FF2BA8
:1028900008BF84F8449094F84530FF2B08BF84F8B3
:1028A000459000F0E9F901A902A8FFF7ADF800286A
:1028B0005AD100F0D1F9A36B002B40F0AC8000F0AE
:1028C000DBF930460199FFF705F800F0C5F994F8F7
:1028D00045305DB2002D04DC11E06B1EDAB25DB252
:1028E0006AB1636A5BB13046FFF752F80028F4D052
:1028F000FFF7B2F86B1EDAB25DB2002AF1D1FF2306
:1029000084F8453000F0B8F900F0A6F994F84430A6
:102910005DB2002D14DD04F1100A03E06B1EDAB283
:102920005DB26AB123695BB15046FFF731F8002808
:10293000F4D0FFF791F86B1EDAB25DB2002AF1D144
:10294000FF2384F8443000F097F9FEF7EDFE0028ED
:1029500052D14FF0E0234FF08052C3F8042DBFF363
:102960004F8FBFF36F8F47E000F076F994F8452062
:1029700055B2002D04DC11E06A1ED3B255B26BB122
:10298000636A5BB13046FFF703F80028F4D0FFF725
:1029900063F86A1ED3B255B2002BF1D1FF2384F83D
:1029A000453000F069F900F057F994F8442055B229
:1029B000002D14DD04F1100A03E06A1ED3B255B2F3
:1029C0006BB123695BB15046FEF7E2FF0028F4D0FB
:1029D000FFF742F86A1ED3B255B2002BF1D1FF23A4
:1029E00084F8443000F048F9FEF79EFE00F034F918
:1029F000A36B53B100F040F900F02EF9A56B002D48
:102A00004ED1019B002B7FF43AAF00F035F9002046
:102A100004B0BDE8F08700F02FF900F01DF994F83C
:102A200045305DB2002D04DC11E06B1EDAB25DB200
:102A30006AB1636A5BB13046FEF7AAFF0028F4D0A2
:102A4000FFF70AF86B1EDAB25DB2002AF1D1FF235C
:102A500084F8453000F010F900F0FEF894F84430A6
:102A60005DB2002D14DD04F1100A03E06B1EDAB232
:102A70005DB26AB123695BB15046FEF789FF002859
:102A8000F4D0FEF7E9FF6B1EDAB25DB2002AF1D195
:102A9000FF2384F8443000F0EFF8FEF745FEABE783
:102AA000226CE66852B16368B1189942E16028BFB0
:102AB0002168404628BFE16000F052FB4FB923690E
:102AC000013DA563D3B900F0D7F8012004B0BDE8FB
:102AD000F087636AE660002BF5D004F12400FEF76E
:102AE00057FF0028EFD04FF0E0234FF08052C3F89B
:102AF000042DBFF34F8FBFF36F8FE4E704F1100095
:102B0000FEF746FF0028DED0EDE700BF70B50546B2
:102B10000E46144600F0A0F895F84430FF2B04BF91
:102B2000002385F8443095F84530FF2B04BF00237F
:102B300085F8453000F0A0F8AB6B002B43D000F0D7
:102B40008BF895F845305CB2002C14DD05F12406B5
:102B500003E0631EDAB25CB26AB16B6A5BB1304605
:102B6000FEF716FF0028F4D0FEF776FF631EDAB2F8
:102B70005CB2002AF1D1FF2385F8453000F07CF8E3
:102B800000F06AF895F844305CB2002C14DD05F1D1
:102B9000100603E0631EDAB25CB26AB12B695BB166
:102BA0003046FEF7F5FE0028F4D0FEF755FF631E11
:102BB000DAB25CB2002AF1D1FF2385F84430BDE8D7
:102BC000704000F059B82246314605F12400FEF766
:102BD000ADFEB4E74FF0BF0383F31188BFF36F8FEF
:102BE000BFF34F8FFEE700BF06480068006880F320
:102BF000088862B661B6BFF34F8FBFF36F8F00DFF7
:102C000000BF000008ED00E010B44FF08074064BE8
:102C100021F0010140E9021440F80C3C40F8202C5E
:102C200010BC4038704700BFD52B000800000000E2
:102C3000074B19680868B0E8F00F80F30988BFF304
:102C40006F8F4FF0000080F311884EF00D0E70472B
:102C500094010020704700BF4FF0BF0383F3118839
:102C6000BFF36F8FBFF34F8F024A136801331360B6
:102C7000704700BF28000020034A1368013B13601F
:102C80000BB983F311887047280000200000000072
:102C9000EFF30980BFF36F8F0D4B1A6820E9F00F37
:102CA00010602DE908404FF0BF0080F31188FEF757
:102CB000EDFD4FF0000080F31188BDE80840196871
:102CC0000868B0E8F00F80F30988BFF36F8F704792
:102CD00094010020704700BF08B54FF0BF0383F395
:102CE0001188BFF36F8FBFF34F8FFEF7A1FC28B1A0
:102CF0004FF0E0234FF08052C3F8042D002383F3FC
:102D0000118808BD4FF0E0230722024959611A617A
:102D1000704700BF3F19010008B54FF0E023D3F81A
:102D2000202D42F47F02C3F8202DD3F8202D42F04D
:102D30007F42C3F8202DFFF7E5FF0022024B1A6007
:102D4000FFF752FFFFF746FF2800002038B5044682
:102D500043071CBF20F007040834FEF753FC0D4A5C
:102D6000136893B143F6F77155682C448C4207D829
:102D7000A54205D21D445460FEF7D6FC284638BD56
:102D80000025FEF7D1FC284638BD034B23F007038E
:102D90001360E7E74803002058030020704700BF96
:102DA000022801D90020704741F6030170B5264A78
:102DB00082B002EB400352F82040244A9D8A94429C
:102DC0009E89ADF80450ADF8061031D0204B9C42DE
:102DD00030D003F580639C422ED003F580639C4283
:102DE0002CD003F580639C422AD003F580639C427B
:102DF00028D0184DAC420CBF4FF4807500252846F2
:102E00000121FEF75FF9204601A9FDF79DFB40F285
:102E1000034328460121ADF80630ADF80460FEF703
:102E200051F9204601A9FDF78FFB012002B070BDCA
:102E30000425E4E70825E2E71025E0E72025DEE7A2
:102E40004025DCE78025DAE7BC34000800080140B3
:102E5000000C014000200140F0B585B005460E464B
:102E60001C46FFF79DFF002841D001210846FEF7D0
:102E700029F900234FF440220096CDE90132ADF844
:102E80000C30042D6AD8DFE805F034575D63030089
:102E900001214FF48010FEF721F9364B694603EB10
:102EA0008503DF693846FEF717FE012240F22551FF
:102EB0003846FEF77BFE4FF451434FF40012C3F83F
:102EC000FC2F60222C4B5A7638460121FEF760FE1B
:102ED000204600220121FFF73BFA02460123274C3E
:102EE0002F0104EB0510C0E90162E555C36005B090
:102EF000F0BD01214FF48040FEF7E4F81D4B694618
:102F000003EB8503DF693846FEF7E6FD012240F258
:102F100025513846FEF74AFE01214FF0600C184853
:102F200005F12503DAB203F01F03024401FA03F3AB
:102F3000436082F800C3C7E701214FF40030FEF779
:102F4000CDF8DBE701214FF48020FEF7C7F8D5E785
:102F500001214FF40020FEF7C1F89EE700206946EA
:102F6000FEF7BAFD012240F225510020FEF71EFEB9
:102F70000027A0E7BC34000800ED00E0504300202B
:102F800000E100E00023F0B585B004460A220846BF
:102F900001A9CDE90133ADF80C3000F0C9F801A862
:102FA00000F0A6F9D8B10DF10306124D37182378B9
:102FB00016F8011F042B96BF05EB83030020D86988
:102FC000FEF70EFE23788021042B05EB830208D840
:102FD000D069FEF70DFE0028F4D0B742E7D105B066
:102FE000F0BD0020FEF704FE0028EBD0B742DED192
:102FF000F5E700BFBC34000832B3F8B504460A4414
:10300000124D4E1E571E237816F8011F042B96BF33
:1030100005EB83030020D869FEF7E2FD23788021C9
:10302000042B05EB830207D8D069FEF7E1FD0028E9
:10303000F4D0B742E7D1F8BD0020FEF7D9FD002853
:10304000ECD0B742DFD1F6E7704700BFBC340008D0
:1030500008B542F2107200238068FFF7F9FB0038D0
:1030600018BF012008BD00BF10B5002482B040F297
:10307000255114480194FEF7C1FD01280DD0019B94
:103080004BB14FF0E0234FF08052C3F8042DBFF353
:103090004F8FBFF36F8F02B010BD40F2255109482A
:1030A000FEF7CEFD0748FEF79FFD8446064A2346FD
:1030B00090680DF1030101AA8DF803C0FFF70EFB24
:1030C000DDE700BF003801405043002010B5002468
:1030D00082B040F2255114480194FEF78FFD01287B
:1030E0000DD0019B4BB14FF0E0234FF08052C3F85D
:1030F000042DBFF34F8FBFF36F8F02B010BD40F2AE
:1031000025510948FEF79CFD0748FEF76DFD8446F2
:10311000064A234690690DF1030101AA8DF803C008
:10312000FFF7DCFADDE700BF004400405043002019
:10313000931E222B10B50C460DD80A2A04D0214626
:1031400000F004F9204610BD0028F8DA2D23404293
:1031500001F8013BF4E700230B70184610BD00BFD7
:10316000844641EA000313F0030349D1403A23D3D4
:103170000B6803604B6843608B688360CB68C360F7
:103180000B6903614B6943618B698361CB69C361DF
:103190000B6A03624B6A43628B6A8362CB6AC362C7
:1031A0000B6B03634B6B43638B6B8363CB6BC363AF
:1031B00040304031403ADBD230320BD30B680360F1
:1031C0004B6843608B688360CB68C36010301031FC
:1031D000103AF3D20C3205D351F8043B40F8043BCB
:1031E000043AF9D2043208D0D2071CBF11F8013BCF
:1031F00000F8013B01D30B8803806046704700BF95
:10320000082A13D38B07B1D010F00303AED0C3F15B
:103210000403D21ADB071CBF11F8013B00F8013B85
:10322000A4D331F8023B20F8023B9FE7043AD9D3FC
:10323000013A11F8013B00F8013BF9D20B78037019
:103240004B7843708B78837060467047830730B546
:1032500048D0541E002A3FD00346CAB201E0013CC8
:103260003AD303F8012B9D07F9D1032C2DD9CDB208
:1032700045EA05250F2C45EA054536D9A4F110028B
:1032800022F00F0C03F1200EE6444FEA121C03F16A
:10329000100242E9045542E9025510327245F8D154
:1032A0000CF1010214F00C0F03EB021204F00F0CEE
:1032B00013D0ACF1040323F003030433134442F8A6
:1032C000045B9342FBD10CF003042CB1CAB21C4442
:1032D00003F8012B9C42FBD130BD64461346002C01
:1032E000F4D1F9E703461446BFE71A46A446E0E7DF
:1032F00020F0030110F00300C0F1000051F8043B7E
:1033000000F1040C4FEACC0C6FF000021CBF22FA53
:103310000CF213434FF0010C4CEA0C2C4CEA0C4C11
:10332000A3EB0C0222EA030212EACC1204BF51F80A
:10333000043B0430F4D0C2F1000102EA0102B2FA07
:1033400082F2C2F11F0200EBD2007047F0B58BB0E1
:103350006D46244FA2F1020C164604468E460FCF4E
:103360000FC50FCF0FC597E80300BCF1220F45F83A
:10337000040B297030D80EF1FF3C60460023B4FBEB
:10338000F6F2274606FB1241144601F128020DEB26
:10339000020111F8282CBE421D4600F8012F03F14E
:1033A0000103ECD900220EF8032095B10EEB0300C7
:1033B00062461CF8011F02326FEA0C03734410F8D6
:1033C000014DA2EB0E022B449A428CF80040017092
:1033D000EEDB70460BB0F0BD002318468EF80030CF
:1033E0000BB0F0BDEC3400084361726400000000D3
:1033F0006361726474696D65720000005769666983
:10340000204D616E6167657220436865636B696E0C
:10341000670A0000537563636573733E0000000024
:10342000230000006B0A0000200000000A000000DA
:10343000436172642052656365697665643A000091
:1034400057616C746F6E2053616E69746572792078
:1034500044697370656E7365720A0000436F64653A
:103460002073686F756C64206E6F74207265616381
:103470006820686572650A00546D72205376630097
:10348000010002000400080010002000400080003D
:10349000000100020004000800100020004000802D
:1034A00004000000080000001000000020000000E0
:1034B0004000000080000000000100000008014002
:1034C00000080140000C0140000408000008000052
:1034D00000020400000400000038014000440040E5
:1034E00000480040004C0040005000403031323372
:1034F0003435363738396162636465666768696A8E
:103500006B6C6D6E6F707172737475767778797A93
:0135100000BA
:103511000000000000000000010203040607080982
:1035210000A24A0400000000010203040102030496
:0C3531000607080902040608AAAAAAAAB4
:0400000508000000EF
:00000001FF
