:020000040800F2
:10000000F84600206902000865020008F9060008A9
:100010006502000865020008650200080000000093
:10002000000000000000000000000000811800082F
:100030006502000800000000E11800082919000806
:1000400065020008650200086502000865020008F4
:10005000650200086502000875120008C512000854
:10006000191300086D130008C11300086502000889
:1000700065020008650200086502000865020008C4
:100080006502000865020008B51500086502000851
:1000900065020008650200086502000815140008E2
:1000A0006502000865020008650200086502000894
:1000B0006502000865020008650200086502000884
:1000C0006502000865020008650200086502000874
:1000D000650200082D1C0008911C0008650200083C
:1000E000D114000865020008650200080000000045
:1000F0000000000000000000000000000000000000
:1001000000000000000000005FF808F110B40020BB
:100110004FF41F04394A3A4B116883B041F0010192
:10012000116051680B405360136823F0847323F40B
:1001300080331360136823F480231360536823F41F
:10014000FE035360946000900190136843F4803381
:10015000136003E0009BB3F5A06F09D0136803F4AC
:1001600000330193009B01330093019B002BF1D0DE
:10017000224B1B6813F4003318BF01230193019B2A
:10018000012B06D04FF000621E4B9A6003B010BCEA
:1001900070471D4A194B116841F010011160116838
:1001A00021F003011160116841F0020111605A68E9
:1001B0005A605A685A605A6842F480625A605A68B3
:1001C00022F47C125A605A6842F4E8125A601A68A3
:1001D00042F080721A601A689201FCD55968074A89
:1001E00021F003015960596841F0020159605368D8
:1001F00003F00C03082BFAD1C4E700BF0010024043
:100200000000FFF800ED00E000200240114A5368B2
:1002100003F00C03082B09D00F4B0E4A0F4952680C
:10022000C2F303128A5CD3400B6170475368516874
:10023000C3F38343C90303F1020306D55268920353
:1002400003D4054A02FB03F3E7E7054A02FB03F385
:10025000E3E700BF0010024000127A000000002017
:1002600000093D00FEE700BF0D480E4A08B5904268
:1002700007D2013A121A22F003020B49043201F0AC
:1002800039FD0A480A494FF000028842B8BF40F8D9
:10029000042BFADBFFF73AFFBDE8084000F03ABA5A
:1002A000000000202C000020841E00082C000020EC
:1002B000F842002000B591F803C01CF0100F18BFE1
:1002C0008B780CF00F0E18BF4EEA030E0B88DAB2D3
:1002D000002A36D0BCF1480F026800F0B380BCF1B0
:1002E000280F00F03A81D90744BF22F00F024EEAEE
:1002F0000202990744BF22F0F00242EA0E125907A7
:1003000044BF22F4706242EA0E22190744BF22F46D
:10031000704242EA0E32D90644BF22F4702242EA09
:100320000E42990644BF22F4700242EA0E52590668
:1003300044BF22F0706242EA0E62190600F10A819F
:100340000260FF2B4AD9BCF1480F426848D1D90559
:1003500006D54FF4807122F00F024EEA02020161CD
:10036000990506D54FF4007122F0F00242EA0E1210
:100370000161590506D54FF4806122F4706242EAAA
:100380000E220161190506D54FF4006122F4704276
:1003900042EA0E320161D90406D54FF4805122F4AD
:1003A000702242EA0E420161990406D54FF40051D1
:1003B00022F4700242EA0E520161590406D54FF44C
:1003C000804122F0706242EA0E6201611B0404D592
:1003D0004FF400436EF31F72036142605DF804FB4B
:1003E000BCF1280F6ED0D90544BF22F00F024EEAAF
:1003F0000202990544BF22F0F00242EA0E125905AA
:1004000044BF22F4706242EA0E22190544BF22F46E
:10041000704242EA0E32D90444BF22F4702242EA0A
:100420000E42990444BF22F4700242EA0E5259046B
:1004300044BF22F0706242EA0E621B04CDD56EF317
:100440001F72CAE7D90705D5012122F00F024EEA33
:1004500002020161990705D5022122F0F00242EA69
:100460000E120161590705D5042122F4706242EA97
:100470000E220161190705D5082122F4704242EAD3
:100480000E320161D90605D5102122F4702242EA0C
:100490000E420161990605D5202122F4700242EA3C
:1004A0000E520161590605D5402122F0706242EAE0
:1004B0000E62016119067FF543AF80216EF31F7252
:1004C00001613DE7D90506D54FF4807122F00F0296
:1004D0004EEA02024161990506D54FF4007122F0FF
:1004E000F00242EA0E124161590506D54FF48061CF
:1004F00022F4706242EA0E224161190506D54FF4DA
:10050000006122F4704242EA0E324161D90406D5FC
:100510004FF4805122F4702242EA0E424161990464
:1005200006D54FF4005122F4700242EA0E524161A6
:10053000590406D54FF4804122F0706242EA0E62FF
:1005400041611B047FF549AF4FF400436EF31F7206
:10055000436142E76EF31F72F2E6D90705D5012128
:1005600022F00F024EEA02024161990705D50221ED
:1005700022F0F00242EA0E124161590705D504212A
:1005800022F4706242EA0E224161190705D5082162
:1005900022F4704242EA0E324161D90605D510219B
:1005A00022F4702242EA0E424161990605D52021CB
:1005B00022F4700242EA0E524161590605D54021EB
:1005C00022F0706242EA0E62416119067FF5B8AE10
:1005D00080216EF31F724161B2E600BFC368194209
:1005E00014BF0120002070470AB1016170474161CA
:1005F000704700BF00281A4B00F44012B4BFDB69FB
:100600005B68B2F5401F10B41FFA80FC1FD0C20215
:1006100014D50322C0F30344A24023EA020343F0AB
:10062000706321B1420D12010CFA02F213430C4A1D
:10063000002810BCB4BFD36153607047420D120153
:100640000CFA02F223EA020343F07063E9E7044C78
:1006500023F07063626822F070626260E1E700BFBD
:100660000000014008B5064D064C28680A222146C4
:1006700001F0B0FA4FF47A7000F03EFCF5E700BFED
:100680002C000020E01D000808B5074C074D6068ED
:1006900000F038F94FF4FA7000F02EFC0C222946D5
:1006A000206801F097FAF2E72C000020EC1D00080A
:1006B000BFF34F8F0449054BCA6802F4E06213434D
:1006C000CB60BFF34F8FFEE700ED00E00400FA05BA
:1006D000084B8168D0E900429C60DA601961D0E97A
:1006E00003255A61C2699D61D0E90541DC61196247
:1006F0005A62FEE72C0000201EF0040F0CBFEFF33F
:100700000880EFF309808169004A1047D10600088C
:10071000704700BF80B582B0FFF778FD01211D2032
:1007200000F092F801211E48FFF764FF4FF42F7389
:1007300000224FF41651012001F0B6F90022194CA5
:100740004FF400734FF4E131A0621046154601F0FA
:10075000ABF92A4608212060284600F08DF80127D1
:10076000844600970227104E2B464FF48062314694
:100770000E480195C4F804C000F006F92B46314636
:100780004FF480620A480195009700F0FDF800F0F0
:1007900003FA1A220749206801F01CFAFFF788FFC4
:1007A000000430002C000020F81D00086506000839
:1007B00089060008FC1D00081F4A10B4536803F0A6
:1007C0000C03082B22D01D4A134602601A491C4A0A
:1007D0004C68C4F30314145DE34043604C68C4F3F5
:1007E0000224145D23FA04F484604C68C4F3C22C20
:1007F00012F80C40E340C360496810BCC1F381317A
:100800000A44127CB3FBF2F30361704753685168EA
:10081000C3F38343C90303F1020307D5526892036C
:1008200004D4064A02FB03F30360CFE7054A02FB48
:1008300003F30360CAE700BF0010024000127A0011
:100840001400002000093D00044A936911B11843C7
:100850009061704723EA00009061704700100240E9
:10086000044AD36911B11843D061704723EA0000EC
:10087000D061704700100240204B30B51D6806283B
:1008800005EB450405F1010503EB040C43F8045B9B
:100890009BBF850205F18045002505F58435012AB9
:1008A0001C4414BF1023042383B00F298DF8073094
:1008B00098BF134B8CF8062098BF33F811204FF0E7
:1008C000030388BF102206288DF8063098BF0C4B12
:1008D0008CF8050096BF03EB80000020006A8CF8BE
:1008E00004100121ADF80420FFF7AEFF284601A94E
:1008F000FFF7E0FC204603B030BD00BF68000020D9
:10090000181E000838B58378012B24D0447803786A
:10091000062C9BBFA40204F18044002404F5843417
:100920000F2B8CBF10250C4A204698BF32F813506D
:100930002946FFF753FE012806D029462046BDE888
:1009400038400122FFF750BE29462046BDE8384016
:100950000022FFF749BE38BD181E0008054B0246AD
:1009600019685B69184003D0114214BF01200020B0
:10097000704700BF00040140014B5861704700BF41
:1009800000040140FEE700BF2DE9F84F4FEA820A5C
:10099000064650460C461F4601F000F8002800F0BD
:1009A000C08083464C2000F0F9FF0546002800F087
:1009B000C580C0F830B0237880F834302378002B1D
:1009C0004DD0637880F835306378002B47D0A3781A
:1009D00080F83630A378002B41D0E37880F83730A8
:1009E000E378002B3BD0237980F838302379002B33
:1009F00035D0637980F839306379002B2FD0A37913
:100A000080F83A30A37953B3E37980F83B30E37947
:100A10002BB3237A80F83C30237A03B3637A80F8CF
:100A20003D30637ADBB1A37A80F83E30A37AB3B16C
:100A3000E37A80F83F30E37A8BB1237B80F8403053
:100A4000237B63B1637B80F84130637B3BB1A37B45
:100A500080F84230A37B13B1E37B80F84330DDF8AC
:100A600028800024B8F1040F28BF4FF0040805F1D6
:100A70000409484685F84340C5F82C8000F0BEFBC9
:100A800005F1180000F0BAFBAAF1040CC8F1050347
:100A90000BEB0C00AB616C643A46314685F848407C
:100AA0002D616D6220F0070000F0D4FE0B9B2860E2
:100AB00003B11D60364E00F0F7FEB3690133B36138
:100AC0007368002B43D0D6F8BC3073B3EB6A06F1E1
:100AD0001C070124D6F8C02003EB83002244C6F88B
:100AE000C020B26804FA03F31343494607EB8000C1
:100AF000B36000F087FB00F0E7FED6F8BC301BB314
:100B00007268EB6AD26A9A421ED24FF0E0234FF02D
:100B10008052C3F8042DBFF34F8FBFF36F8F204671
:100B200001E04FF0FF30BDE8F88F7268EB6AD26ADF
:100B300006F11C079A4298BF7560CAE7584600F054
:100B400055FF4FF0FF30EEE72046BDE8F88F7560A7
:100B5000B369012BBAD106F11C073C4606F18008A7
:100B60002046143400F03EFB4445F9D1DFF82480E0
:100B7000A8F1140000F036FB404600F033FB08F10A
:100B8000140000F02FFB3461EB6AC6F80C80A0E77C
:100B9000C80000205C0100202DE9F8434FF44870A4
:100BA00000F0FCFE002873D005464C2000F0F6FE55
:100BB000044600286ED000274D4B00F10408C0E920
:100BC0000C53404684F8387084F84370E76200F0B4
:100BD00015FB04F1180000F011FB052305F5477023
:100BE000A3613A46434967642461646284F84870AB
:100BF00020F0070000F02EFE3F4E2060C6F8C440F3
:100C000000F052FEB3690133B3617368002B4FD01B
:100C1000D6F8BC30002B42D0E26A06F11C05012355
:100C2000D6F8C000B7681844C6F8C000934002EB7D
:100C300082003B43414605EB8000B36000F0E2FADE
:100C400000F042FED6F8BC3073B17268E36AD26A33
:100C50009A4209D24FF0E0234FF08052C3F8042D9E
:100C6000BFF34F8FBFF36F8F4FF0BF0383F3118834
:100C7000BFF36F8FBFF34F8F00234FF0FF3101227F
:100C80007161C6F8BC203360BDE8F84300F06CBE6B
:100C9000BDE8F8832846BDE8F84300F0A7BE7368B6
:100CA000E26ADB6A06F11C05934298BF7460B6E7FE
:100CB0007460B369012BAFD106F11C052F4606F114
:100CC00080093846143700F08DFAB945F9D10B4F39
:100CD000A7F1140000F086FA384600F083FA07F115
:100CE000140000F07FFAC6F81090E26AF76096E709
:100CF00049444C4585090008C80000205C010020DB
:100D0000034AD2F8C8300133C2F8C830704700BF78
:100D1000C80000202DE9F0473A4CD4F8C830002B29
:100D200049D12768013727607FB92369E2682261CA
:100D3000E360D4F8CC300133C4F8CC3023691B68AD
:100D4000002B52D14FF0FF3363616369BB4240D83F
:100D500023691E68002E51D000264FF00109DFF8EC
:100D6000A8801EE0504600F073FAAB6A05F1180047
:100D70000BB100F06DFAE86AA26809FA00F300EB23
:100D800080001343514608EB8000A36000F03AFA5C
:100D900062682369E96AD26A1B68914228BF01260A
:100DA00063B32369DB68DD686B6805F1040A9F4261
:100DB000D8D263610EE00026D4F8D0300133C4F8F5
:100DC000D030D4F8D430002B0CBF30460120BDE821
:100DD000F08700266368DB6A03EB830304EB83037D
:100DE000DB69022B28BF0126EBE72369DB68DB68A0
:100DF0005B6863616369BB42EBD8A9E74FF0FF33DF
:100E00006361E7E7C8000020E40000202DE9F0411D
:100E1000384C00F049FDD4F8C830013BC4F8C83064
:100E2000D4F8C830002B42D1A369002B3FD0D4F8AE
:100E3000A83063B3012604F11C07D4F8B430DD6890
:100E400005F1040805F1180000F002FA404600F030
:100E5000FFF9E86AA26806FA00F300EB800013438A
:100E6000414607EB8000A36000F0CCF96368EA6AB2
:100E7000DB6A9A42D4F8A8301FD3C4F8D460002BA0
:100E8000DBD123691B6873BB4FF0FF336361D4F878
:100E9000D0504DB10126FFF73DFF08B1C4F8D46032
:100EA000013DF8D1C4F8D050D4F8D4305BB9002457
:100EB00000F00AFD2046BDE8F081002BBDD123697A
:100EC0001B6883B9E0E74FF0E0234FF08052C3F88E
:100ED000042DBFF34F8FBFF36F8F012400F0F4FC9C
:100EE0002046BDE8F0812369DB68DB685B686361ED
:100EF000CDE700BFC800002070B550B94FF0E02327
:100F00004FF08052C3F8042DBFF34F8FBFF36F8FA4
:100F100070BD164D0446D5F8C8300133C5F8C83049
:100F20002E686868043000F093F938B96A68AB68D5
:100F3000D16A01228A4023EA0203AB606B68A419DC
:100F40005C600DD228696968043100F069F96B6949
:100F50009C4238BF6C61FFF759FF0028CED070BDAE
:100F6000E8686968043100F05BF9F4E7C800002024
:100F7000104AD2F8C8301BB10123C2F8D4307047F0
:100F8000C2F8D4309368B3FA83F3DBB2C3F11F0322
:100F900003EB830302EB83000346016A24334968B1
:100FA0009942016208BF4968CB6808BF016253607B
:100FB000704700BFC8000020F8B5C368164CDD6854
:100FC00005F11806304600F043F9D4F8C830EBB903
:100FD0002E1D304600F03CF90123EA6AA76831462D
:100FE00004F11C0002EB820693403B4300EB8600B9
:100FF000A36000F007F96368EA6ADB6A9A4289BF76
:10100000012300201846C4F8D430F8BD314604F15D
:10101000A80000F0F7F8EEE7C8000020836819B1D7
:1010200043F001038360704723F00103836070473E
:10103000836819B143F4A0038360704723F4A003CD
:1010400083607047C06C80B2704700BF436800681F
:1010500010EA112004D0C9B2194214BF01200020A7
:10106000704700BF6FEA11210160704730B5044638
:101070000D46238ACA889BB223F4405313438A89BE
:101080002382A389898823F4B05323F00C031B0423
:101090001B0C0B43298987B00B43698901A80B43BB
:1010A0009BB2A381A38A9BB223F440731343A38210
:1010B000FFF782FBDDE90332184919488C4208BF6B
:1010C0001346A28903EB830312F4004F2A6803EB53
:1010D000830314BF52009200B3FBF2F36425A0FB1C
:1010E0000321490905FB11330A01A18909040AD426
:1010F0001B013233A0FB0313C3F3431313439BB20F
:10110000238107B030BDDB003233A0FB0313C3F3F0
:10111000421313439BB2238107B030BD0038014016
:101120001F85EB51838921B19BB243F40053838126
:10113000704723F400531B041B0C8381704700BFCE
:10114000012301F01F0CC1F34211012903FA0CF332
:101150000DD002290CBF103014301AB102681343AD
:1011600003607047026822EA0303036070470C3093
:10117000F3E700BFC1F30801818070478088C0F3A6
:10118000080070470388194214BF012000207047EF
:101190000123C1F3421201F01F0C012A03FA0CF3E0
:1011A00013D0022A0CBF028A828A92B213400288AC
:1011B00092B243B10123090A03FA01F10A4214BFB2
:1011C00018460020704718467047828992B2134033
:1011D000EDE700BF0123090A8B40DB439BB203808C
:1011E000704700BF4FF0FF31002200F10803C0E953
:1011F0000131C0E903330260704700BF002303617F
:10120000704700BFD0E9002310B49C6801328C60A5
:101210009C684B606160996010BC08610260704717
:1012200030B40D686B1C10D000F108031C465B68DD
:101230001A68AA42FAD902684B60013299608C6040
:101240006160086130BC0260704704696368F2E75E
:101250000346026910B45468406899689C428160F2
:10126000486008BF51600021106810BC0138196146
:1012700010607047002300B5012083B00193FFF791
:101280006DFB012802D003B05DF804FBFFF774FB8F
:101290000B4B1B6823B15A6812B1996801A890479B
:1012A000019B002BEFD04FF0E0234FF08052C3F8AA
:1012B000042DBFF34F8FBFF36F8F03B05DF804FBB6
:1012C000A0010020002300B5022083B00193FFF7A6
:1012D00045FB012802D003B05DF804FB0220FFF7B4
:1012E0004BFB0C4B5B6823B15A6812B1996801A89B
:1012F0009047019B002BEED04FF0E0234FF080523F
:10130000C3F8042DBFF34F8FBFF36F8F03B05DF8A9
:1013100004FB00BFA0010020002300B5042083B01F
:101320000193FFF71BFB012802D003B05DF804FB1B
:101330000420FFF721FB0C4B9B6823B15A6812B1C4
:10134000996801A89047019B002BEED04FF0E02355
:101350004FF08052C3F8042DBFF34F8FBFF36F8F50
:1013600003B05DF804FB00BFA0010020002300B51E
:10137000082083B00193FFF7F1FA012802D003B0EF
:101380005DF804FB0820FFF7F7FA0C4BDB6823B18C
:101390005A6812B1996801A89047019B002BEED0C2
:1013A0004FF0E0234FF08052C3F8042DBFF34F8F6E
:1013B000BFF36F8F03B05DF804FB00BFA0010020F6
:1013C000002300B5102083B00193FFF7C7FA01286E
:1013D00002D003B05DF804FB1020FFF7CDFA0C4BF0
:1013E0001B6923B15A6812B1996801A89047019B03
:1013F000002BEED04FF0E0234FF08052C3F8042DC5
:10140000BFF34F8FBFF36F8F03B05DF804FB00BFD6
:10141000A0010020002300B5202083B00193FFF736
:101420009DFA012838D04020FFF798FA01282BD0E8
:101430008020FFF793FA01283FD04FF48070FFF728
:101440008DFA012830D04FF40070FFF787FA012899
:1014500017D14FF40070FFF78FFA1C4B5B6A23B172
:101460005A6812B1996801A89047019B4BB14FF09F
:10147000E0234FF08052C3F8042DBFF34F8FBFF32A
:101480006F8F03B05DF804FB4020FFF775FA0F4B38
:101490009B69002BE4D1E8E72020FFF76DFA0B4BA6
:1014A0005B69002BDCD1E0E74FF48070FFF764FA52
:1014B000064B1B6A002BD3D1D7E78020FFF75CFADD
:1014C000024BDB69002BCBD1CFE700BFA00100208E
:1014D000002300B54FF4004083B00193FFF73EFABC
:1014E000012841D04FF48040FFF738FA012832D06C
:1014F0004FF40050FFF732FA012847D04FF48050E4
:10150000FFF72CFA012838D04FF40060FFF726FAD5
:10151000012844D04FF48060FFF720FA012817D14A
:101520004FF48060FFF728FA214B9B6A23B15A6879
:1015300012B1996801A89047019B4BB14FF0E0238D
:101540004FF08052C3F8042DBFF34F8FBFF36F8F5E
:1015500003B05DF804FB4FF48040FFF70DFA144B25
:101560009B6B002BE3D1E7E74FF40040FFF704FA51
:101570000F4BDB6B002BDAD1DEE74FF48050FFF727
:10158000FBF90B4B1B6B002BD1D1D5E74FF400506F
:10159000FFF7F2F9064B5B6B002BC8D1CCE74FF499
:1015A0000060FFF7E9F9024BDB6A002BBFD1C3E70C
:1015B000A001002010B54FF4087182B01C48FFF75D
:1015C00045FD68B9019B4BB14FF0E0234FF08052CD
:1015D000C3F8042DBFF34F8FBFF36F8F02B010BD60
:1015E0004FF408711248FFF73DFD1148FFF72AFD3F
:1015F000104B1C68002CE5D0B3F88E104A1C92B238
:1016000003EB41013F2AC881A3F88E200AD9227832
:1016100001A998681A7300F0C7F800210448FFF781
:10162000FDFCCFE701210248FFF702FDCAE700BF3A
:1016300000240140F001002070B506460D4651B16E
:1016400000FB01F0483000F0A9F9044658B300F15E
:101650004803036005E0482000F0A0F9044610B3F9
:101660002460C4E90F65FF25002600F01DF9216CF8
:10167000E36B226801FB03F3591AA26013440A4486
:101680006360E260A66304F1100084F8445084F8BB
:101690004550FFF7A7FD04F12400FFF7A3FD00F07C
:1016A00013F9204670BD0024204670BD2DE9F84393
:1016B000044690469946EFF311874FF0BF0282F33C
:1016C0001188BFF36F8FBFF34F8F856BC06B85425F
:1016D0002BD3022B04D0002087F31188BDE8F883B8
:1016E00094F84550226CA66B6DB28AB1E06800F0A8
:1016F00001FB226CE1682068891A8142E160C2F135
:10170000000240D261680A44E260B9F1020F3AD0A7
:1017100001366B1CA66321D0012005446DB284F80C
:10172000455087F31188BDE8F88394F84550226C42
:10173000A66B6DB2002AEBD04BBBA06800F0DAFAC2
:10174000A368226C013613446268A360934228BFE9
:101750002368A66328BFA3606B1CDDD1636A23B92D
:10176000012087F31188BDE8F88304F12400FFF716
:1017700023FC0028F4D0B8F1000FF1D00123184663
:10178000C8F80030A8E7012E38BF0126C1E7E0689D
:1017900000F0B0FA226CE1682068891A8142E160A9
:1017A000C2F10002B1D2ADE710B5034682B0EFF34B
:1017B00011844FF0BF0282F31188BFF36F8FBFF324
:1017C0004F8F826BC06B90420FD993F84500013266
:1017D000FF289A6342B20DD0013252B2012083F841
:1017E000452084F3118802B010BD002084F31188D5
:1017F00002B010BD5A6A22B9012084F3118802B0E8
:1018000010BD03F124000191FFF7D6FB0028F3D0AF
:1018100001990029F0D0012318460B60E6E700BFCC
:101820004FF0BF0383F31188BFF36F8FBFF34F8F68
:10183000FEE700BF06480068006880F3088862B6CB
:1018400061B6BFF34F8FBFF36F8F00DF00BF0000A3
:1018500008ED00E010B44FF08074064B21F0010158
:1018600040E9021440F80C3C40F8202C10BC4038F1
:10187000704700BF211800080000000000000000B1
:10188000074B19680868B0E8F00F80F30988BFF3C8
:101890006F8F4FF0000080F311884EF00D0E7047EF
:1018A000CC000020704700BF4FF0BF0383F31188C6
:1018B000BFF36F8FBFF34F8F024A1368013313607A
:1018C000704700BF28000020034A1368013B1360E3
:1018D0000BB983F311887047280000200000000036
:1018E000EFF30980BFF36F8F0D4B1A6820E9F00FFB
:1018F00010602DE908404FF0BF0080F31188FFF71A
:1019000037FB4FF0000080F31188BDE808401968EC
:101910000868B0E8F00F80F30988BFF36F8F704755
:10192000CC000020704700BF08B54FF0BF0383F321
:101930001188BFF36F8FBFF34F8FFFF7EBF928B11B
:101940004FF0E0234FF08052C3F8042D002383F3BF
:10195000118808BD4FF0E0230722024959611A613E
:10196000704700BF3F19010008B54FF0E023D3F8DE
:10197000202D42F47F02C3F8202DD3F8202D42F011
:101980007F42C3F8202DFFF7E5FF0022024B1A60CB
:10199000FFF750FFFFF744FF2800002038B504464A
:1019A00043071CBF20F007040834FFF7A9F90D4ACC
:1019B000136893B143F6F77155682C448C4207D8ED
:1019C000A54205D21D445460FFF720FA284638BDD1
:1019D0000025FFF71BFA284638BD034B23F0070309
:1019E0001360E7E78002002090020020704700BFEC
:1019F000022801D90020704741F6030170B5264A3C
:101A000082B002EB400352F82040244A9D8A94425F
:101A10009E89ADF80450ADF8061031D0204B9C42A1
:101A200030D003F580639C422ED003F580639C4246
:101A30002CD003F580639C422AD003F580639C423E
:101A400028D0184DAC420CBF4FF4807500252846B5
:101A50000121FEF7F9FE204601A9FEF72BFC40F21A
:101A6000034328460121ADF80630ADF80460FEF7C7
:101A7000EBFE204601A9FEF71DFC012002B070BD5F
:101A80000425E4E70825E2E71025E0E72025DEE766
:101A90004025DCE78025DAE7541E000800080140F5
:101AA000000C014000200140F0B585B005460E460F
:101AB0001C46FFF79DFF002841D001210846FEF794
:101AC000C3FE00234FF440220096CDE90132ADF869
:101AD0000C30042D6AD8DFE805F034575D6303004D
:101AE00001214FF48010FEF7BBFE364B694603EB35
:101AF0008503DF693846FFF7B9FA012240F2255124
:101B00003846FFF71DFB4FF451434FF40012C3F862
:101B1000FC2F60222C4B5A7638460121FFF702FB3E
:101B2000204600220121FFF787FD02460123274CB2
:101B30002F0104EB0510C0E90162E555C36005B053
:101B4000F0BD01214FF48040FEF77EFE1D4B69463B
:101B500003EB8503DF693846FFF788FA012240F27C
:101B600025513846FFF7ECFA01214FF0600C184878
:101B700005F12503DAB203F01F03024401FA03F36F
:101B8000436082F800C3C7E701214FF40030FEF73D
:101B900067FEDBE701214FF48020FEF761FED5E709
:101BA00001214FF40020FEF75BFE9EE7002069460E
:101BB000FFF75CFA012240F225510020FFF7C0FA3E
:101BC0000027A0E7541E000800ED00E08842002036
:101BD00000E100E032B3F8B504460A44124D4E1E4F
:101BE000571E237816F8011F042B96BF05EB8303BD
:101BF0000020D869FFF7BEFA23788021042B05EB7B
:101C0000830207D8D069FFF7BDFA0028F4D0B742A5
:101C1000E7D1F8BD0020FFF7B5FA0028ECD0B742B5
:101C2000DFD1F6E7704700BF541E000810B500244E
:101C300082B040F2255114480194FFF7A9FA012817
:101C40000DD0019B4BB14FF0E0234FF08052C3F811
:101C5000042DBFF34F8FBFF36F8F02B010BD40F262
:101C600025510948FFF7B6FA0748FFF787FA844677
:101C7000064A234690680DF1030101AA8DF803C0BE
:101C8000FFF714FDDDE700BF003801408842002067
:101C900010B5002482B040F2255114480194FFF79A
:101CA00077FA01280DD0019B4BB14FF0E0234FF0A4
:101CB0008052C3F8042DBFF34F8FBFF36F8F02B074
:101CC00010BD40F225510948FFF784FA0748FFF795
:101CD00055FA8446064A234690690DF1030101AA8C
:101CE0008DF803C0FFF7E2FCDDE700BF00440040D1
:101CF00088420020844641EA000313F0030349D1DF
:101D0000403A23D30B6803604B6843608B68836061
:101D1000CB68C3600B6903614B6943618B69836165
:101D2000CB69C3610B6A03624B6A43628B6A83624D
:101D3000CB6AC3620B6B03634B6B43638B6B836335
:101D4000CB6BC36340304031403ADBD230320BD3EF
:101D50000B6803604B6843608B688360CB68C3602B
:101D600010301031103AF3D20C3205D351F8043B45
:101D700040F8043B043AF9D2043208D0D2071CBF21
:101D800011F8013B00F8013B01D30B88038060464A
:101D9000704700BF082A13D38B07B1D010F003039C
:101DA000AED0C3F10403D21ADB071CBF11F8013B0C
:101DB00000F8013BA4D331F8023B20F8023B9FE737
:101DC000043AD9D3013A11F8013B00F8013BF9D2AA
:101DD0000B7803704B7843708B7883706046704744
:101DE0004D61696E205461736B0A000048656C6C2C
:101DF0006F6F6F6F6F6F580A00000000436F64656C
:101E00002073686F756C646E6F74207265616368AF
:101E100020686572650A00000100020004000800E5
:101E200010002000400080000001000200040008B3
:101E300000100020004000800400000008000000A6
:101E400010000000200000004000000080000000A2
:101E5000000100000008014000080140000C0140A2
:101E60000004080000080000000204000004000054
:101E7000003801400044004000480040004C004051
:041E800000500040CE
:101E84000000000000000000010203040607080926
:101E940000A24A040000000001020304010203043A
:0C1EA4000607080902040608AAAAAAAA58
:0400000508000000EF
:00000001FF
